:020000040800F2
:10000000080F0020A1010008674D0008F346000812
:10001000654D000857150008D15200080000000087
:100020000000000000000000000000006B4D000810
:100030008F15000800000000694D00086D4D000894
:10004000BB010008BB010008BB010008BB010008A0
:10005000BB010008BB010008BB010008BB01000890
:10006000BB010008BB010008BB010008BB01000880
:10007000BB010008BB01000859150008BB010008BE
:10008000BB010008BB01000851130008BB010008B8
:10009000BB010008BB010008BB010008BB01000850
:1000A000BB010008BB010008BB010008BB01000840
:1000B000BB010008ED4D0008BB010008BB010008B2
:1000C000BB010008BB010008BB010008BB01000820
:1000D000BB010008C5520008BB010008BB010008B5
:1000E000BB010008BB010008BB01000800F002F8DA
:1000F00000F047F80AA090E8000C82448344AAF17B
:100100000107DA4501D100F03CF8AFF2090EBAE878
:100110000F0013F0010F18BFFB1A43F0010318473B
:100120004C6300006C630000103A24BF78C878C1AB
:10013000FAD8520724BF30C830C144BF04680C60ED
:10014000704700000023002400250026103A28BF35
:1001500078C1FBD8520728BF30C148BF0B60704739
:10016000662905F05687002070471FB500F0B2FBE6
:1001700004000020002105F081FBE0601FBD10B5E8
:1001800010BD00F0A7FC1146FFF7EFFF05F04CFB98
:1001900000F0C5FC03B4FFF7F2FF03BC00F008FD5C
:1001A0000948804709480047FEE7FEE7FEE7FEE70B
:1001B000FEE7FEE7FEE7FEE7FEE7FEE70448054947
:1001C000054A064B70470000E94D0008ED000008A5
:1001D00008090020080F0020080B0020080B002051
:1001E0000FB47CB50C0009AA009001D02044401E39
:1001F000084B7B4469460190089800F04AFB05468D
:100200001CB10020694600F057FB28467CBC5DF815
:1002100014FB0000CD0600002DE9F0474FF0000A66
:1002200089460446C0F820A02046E1688847002897
:1002300076D0252806D0D4E901219047206A401CB9
:100240002062F1E7E168204600258847C4F81CA039
:1002500006460027C4F818A02A2E09D0304605F01B
:100260005CF838B304EB8708303EC8F8186019E032
:1002700059F8041B204604EB87029161E168884726
:10028000012F064618D1E069002820DA25F0200564
:100290001DE0D8F8180000EB800006EB4000303875
:1002A000C8F818002046E1688847064605F035F88A
:1002B0000028EED1012F0AD02E2E08D12046E16869
:1002C00088477F1C0646022F45F02005C4DBA06945
:1002D000002803DA404245F00105A061E80701D09B
:1002E00025F01005B6B1A6F14100192802D8203634
:1002F00045F400654A463146204625604D46FFF7E5
:100300002FFF58B1012806D0ED1D25F0070000F1A0
:10031000080989E704E005F1040985E730468AE722
:10032000206ABDE8F087032A40F2308010F0030C09
:1003300000F0158011F8013BBCF1020F624498BF38
:1003400011F801CB00F8013B38BF11F8013BA2F1D5
:10035000040298BF00F801CB38BF00F8013B11F050
:10036000030300F02580083AC0F0088051F8043BF0
:10037000083A51F804CBA0E80810F5E7121D5CBF5D
:1003800051F8043B40F8043BAFF30080D20724BF90
:1003900011F8013B11F801CB48BF11F8012B24BF24
:1003A00000F8013B00F801CB48BF00F8012B704773
:1003B00010B5203AC0F00B80B1E81850203AA0E800
:1003C0001850B1E81850A0E81850BFF4F5AF5FEA34
:1003D000027C24BFB1E81850A0E8185044BF18C9E7
:1003E00018C0BDE810405FEA827C24BF51F8043B8E
:1003F00040F8043B08BF7047D20728BF31F8023BE2
:1004000048BF11F8012B28BF20F8023B48BF00F875
:10041000012B70474FF0000200B5134694469646F4
:10042000203922BFA0E80C50A0E80C50B1F1200107
:10043000BFF4F7AF090728BFA0E80C5048BF0CC0B5
:100440005DF804EB890028BF40F8042B08BF704713
:1004500048BF20F8022B11F0804F18BF00F8012B85
:10046000704770477047704770472DE9FF4F0C4643
:100470001E464FF0FF378BB0D2E90001DDF86080F7
:100480000A908A46C1F30A5505B93D46002108463F
:100490004FF00000BAF1000F00F4400005DA00EB65
:1004A00080004FF4400101EA50004FEA9059B9F141
:1004B000010F00DDB9460A9850EA4A000ED044F612
:1004C0001050A5F2FF3545432F14B8F1000F1ED090
:1004D0007542291E1EDDC9F100021CE0B8F1010FB2
:1004E0004FF0000001D0302103E0F24305E0215439
:1004F000401CB042FBDB30460022002121540B9906
:10050000C1F80880C1E900200FB0BDE8F08FBD1B25
:100510006D1CDEE74A4600DA694206A800F064FA7C
:1005200006AB93E8070003AB83E8070050460A993F
:1005300000F045FB8DE80700A0F500501F38009043
:100540000398002D0ADD42F21F014A4608440023A9
:1005500003A90390684600F0AEFD09E0A0F5005045
:100560004A461F38002303A90390684600F0B8FDEF
:100570008DE807000004000C03D04FF0FF30410865
:1005800000E01046B8F1000F03D00022009215469B
:100590001EE0751E05D400F0A1F9303262556D1EC3
:1005A000F9D5B3460122084302D000227F1C04E0A3
:1005B0002078302801D100227F1E002A099784D09C
:1005C0001DE0112D07DA00F089F9303262556D1CFB
:1005D00050EA0102F5D1084302D00098C8B10EE0FC
:1005E0000021681E05E0235C625C63542254401EB7
:1005F000491C8142F7DBAB46A81B401E0990002036
:1006000004F80B000B98099AC0F80880C0E9002B89
:100610007AE711264FF0000857E72DE9F04F88469A
:100620000446D21D22F0070191B0D1E90001CDE9C5
:100630000A0104F04EFE02460B98C00F01D02D2097
:1006400007E02068810701D52B2002E0202101EA84
:10065000C000032A099001D0072A05DB0346414662
:10066000204600F081F90BE12078800601D5E06991
:1006700000E00620B8F1650F814606D0B8F1660F9C
:1006800018D0B8F1670F70D131E00020B9F1110F27
:10069000009001DB112301E009F101030AAA01A97D
:1006A0000CA8FFF7E2FEDDE90C70002609F1010558
:1006B000834647E001204B4600904FF000470AAACE
:1006C00001A90CA8FFF7D1FEDDE90DB00C995D463C
:1006D000002610B909F101000D18B9EB050003D48B
:1006E000C0F1FF3609F10105A5EB09002BE0B9F1D6
:1006F000010F01DA4FF001090020B9F1110F00904C
:10070000484601DD112300E003460AAA01A90CA80E
:10071000FFF7ABFEDDE90C704D46002683462078DE
:1007200000070AD4AB4500DA5D4601A8012D04DDBF
:10073000411911F8011C302907D04F4502DA17F191
:10074000040F04DA012082460FE06D1EEEE7002F51
:1007500002DCED1B3E4403E0781CA84200DD7D1C5A
:10076000B81B00F1010A4FF000472078000703D4BE
:10077000AA4501DB4FF0FF3A0021B7F1004F0DF120
:1007800043088DF8431024D002202B23002F01DAD8
:100790007F422D230A21021EA0F1010000DC5FB17F
:1007A00097FBF1FC97FBF1F201FB1C7C17460CF167
:1007B000300C08F801CDEEE7A8F1010003702188A4
:1007C000090501D5452100E06521A0F1010800F8E7
:1007D000011C09980FA9A1EB0807FF1D00B101201A
:1007E000411901EBEA70A1693844081A401EA06162
:1007F0002078C00602D42046AFF30080099828B1C3
:10080000D4E901219047206A401C20622078C0066C
:1008100022D52046AFF300801EE0002E04DBB34556
:1008200002DD01A8805D00E03020D4E9012190477D
:10083000206A401C2062761CAAF101005FEA000ACF
:100840000AD100F047F8C0680168405CD4E9012192
:100850009047206A401C2062281EA5F10105DCDCBF
:1008600007E0D4E9012118F8010B9047206A401CE9
:100870002062381EA7F10107F3DC2046AFF30080A9
:10088000032011B041E6000001694A1C02610878AA
:10089000704700B58FB0CDE90131002105910549C0
:1008A0007944CDE9031011466846FFF7B5FC0FB057
:1008B00000BD0000E5FFFFFF0A6802F8010B0A60B7
:1008C0007047D1E900239A4202D2531C0B6010708A
:1008D0007047000000487047C808002030B5B0F1EC
:1008E0000A024FEA900E71F100034EEA817EB0EBEE
:1008F0000E0061EB91014FEA101E4EEA017E10EBF3
:100900000E0041EB11114FEA102E4EEA016E10EB72
:100910000E0041EB11214FEA104E4EEA014E10EB52
:100920000E0041EB1141401841F100014FEAD000A7
:1009300040EA41704FEAD10110EB80054FEA810493
:1009400044EA907444EB01046D1944EB0404521B17
:10095000A3414FF0000348BF0A3200D530BD401C10
:1009600041F1000130BD00002DE9F0411F46044671
:1009700003260168072A01F4006004DB08B116A50C
:1009800005E016A503E008B115A500E015A521F0C6
:1009900010002060A069C01EA0610FB1401EA061C0
:1009A0002046AFF300804FB1D4E90121384690478B
:1009B000206A401C2062C01C206206E0206AFAE720
:1009C000D4E9012115F8010B9047761EF8D2204694
:1009D000AFF30080BDE8F0814E414E006E616E00C5
:1009E000494E4600696E66002DE9F047814616467D
:1009F0008AB0354878440DC88DE80D0032487844F7
:100A0000801C03AC0DC884E80D0041F69B300844FF
:100A1000372190FBF1F290FBF1F5A5F1800501FB88
:100A200012041B3C02D56442012000E00020DFF8E4
:100A300098A080460027FA44AAF1BE0A0EE0E0071B
:100A40000AD03246684607EB470101230AEB8101D1
:100A500000F046FB8DE8070064107F1C002CEED1EF
:100A6000194F7F44AE3F19E0E80715D007EB04109B
:100A70000DF1180A90E80E008AE80E00C068F042F6
:100A800001D1981908903246012306A903A800F065
:100A900027FB03AB83E807006D10641C002DE3D136
:100AA0004FF0010332466946B8F1000F03A802D0A7
:100AB00000F001FB01E000F013FBC9E90001C9F8F7
:100AC00008200AB0BDE8F0875C5A00000048704773
:100AD000A80800207546FFF7F9FFAE4605006946F5
:100AE000534620F00700854618B020B5FFF766FB97
:100AF000BDE820404FF000064FF000074FF000081F
:100B00004FF0000B21F00701AC46ACE8C009ACE89F
:100B1000C009ACE8C009ACE8C0098D46704710B503
:100B20000446AFF300802046BDE81040FFF732BB1B
:100B30004FF0013C50F8042B51F8043B9A4221D16C
:100B4000A2EB0C03934313EACC1317D150F8042BF8
:100B500051F8043B9A4215D1A2EB0C03934313EADC
:100B6000CC130BD150F8042B51F8043B9A4209D115
:100B7000A2EB0C03934313EACC13DBD04FF000003D
:100B8000704700BFD01A01BAB1FA81F101F0180123
:100B900022FA01F0CB40C1F12001DBB2C0B2C01A91
:100BA0002CFA01F3D11A914311EAC311E6D170472F
:100BB00001491820ABBEFEE72600020070475FEA3D
:100BC000400C08BF91F0000F4FEA8C234FEAC1227E
:100BD00043EA51514FEA1C5018BF00F5F0404FEA6C
:100BE000300018BF41F000415FEA6C5C00F02980E2
:100BF000BCF1FF3F08BF40F080407047130C06BFB8
:100C000012044FF0100C4FF0000C130E04BF120230
:100C10000CF1080C130F04BF12010CF1040C930F1C
:100C200004BF92000CF1020CD30F04BF52000CF170
:100C3000010C11464FF00002A0F11F00A0EB0C00C8
:100C4000704711F0004F08BF704731F000413FF48A
:100C5000D5AF0B0C06BF09044FF0100C4FF0000C81
:100C60000B0E04BF09020CF1080C0B0F04BF0901A5
:100C70000CF1040C8B0F04BF89000CF1020CCB0F9C
:100C800004BF49000CF1010CCCF12003A0EB0C00D7
:100C900022FA03F302FA0CF241EA030100F1010027
:100CA000704720F07F4C80EA030023F07F47ACEBD5
:100CB000070303F57C5300F0004003F1FF032DE927
:100CC00080494FEA154B09B44FEA144325EA0B4E0D
:100CD00024EA03480FF2042606EB132749083E785E
:100CE0005FEA320203FB0667C7F5000707FB06F65B
:100CF0004FEA54374FEAD64606F1020607FB066C68
:100D0000CCF1005C4FEA1C472CEA074C07FB06F4C9
:100D10000CFB06F504EB15464FEA961634BF00208F
:100D20004FF000404FEAD13706FB07FC4FEA1C4C5E
:100D30000CFB0BF7D21B03FB0CF761EB07010CFB61
:100D40000EF7B0EB074072EB17420CFB08F734BF0D
:100D5000A2EB0742B2EB074261EB17414FEA0C44AA
:100D60004FEA910706FB07FC4FEA1C4C0CFB0BF704
:100D7000B0EBC74072EB573203FB0CF734BFA2EB6A
:100D8000C742B2EBC74261EB57310CFB0EF7B0EB39
:100D9000C70072EB57720CFB08F734BFA2EBC70217
:100DA000B2EBC70261EB5771039F4FEA816141EAE1
:100DB000921104EBCC044FEAD1374FEA826206FB72
:100DC00007FC42EA90124FEA80604FEA1C4C0CFB91
:100DD0000BF7D21B03FB0CF761EB07010CFB0EF7C3
:100DE000B0EB074072EB17420CFB08F734BFA2EBE5
:100DF0000742B2EB074261EB17414FEA8C554FEACD
:100E0000910704EB9C2406FB07FC4FEA1C4C0CFBEF
:100E10000BF7B0EBC74072EB573203FB0CF734BF54
:100E2000A2EBC742B2EBC74261EB57310CFB0EF7A6
:100E3000B0EBC70072EB57720CFB08F734BFA2EBA4
:100E4000C702B2EBC70261EB577115EB4C254FEAB5
:100E5000816141EA92114FEA82624FEAD13742EA58
:100E6000901206FB07FC44F100044FEA80604FEA51
:100E70001C4C0CFB0BF7D21B03FB0CF761EB0701BF
:100E80000CFB0EF7B0EB074072EB17420CFB08F7B8
:100E900034BFA2EB0742B2EB074261EB174115EBFF
:100EA0001C154FEA813141EA92414FEA823242EA0F
:100EB00090424FEA80304FEA0C7644F1000448EA51
:100EC00003434EEA0B484FF0000EB2EB080C71EBF7
:100ED000030724BF624639464EEB0E0E4FF0000B5F
:100EE0000018524149414BEB0B0BB2EB080C71EB74
:100EF00003077BF1000B24BF624639464EEB0E0E12
:100F00004FF0000B0018524149414BEB0B0BB2EB79
:100F1000080C71EB03077BF1000B24BF62463946D6
:100F20004EEB0E0E51EA020718BF46F0010616EB13
:100F30000E7655F1000254F1000103D5BDE8890198
:100F4000BDE80088BDE88901BDE80048B6195241F6
:100F500041EB0101A3F10103704780807F7E7D7C1E
:100F60007B7A7978777676757473727171706F6E3B
:100F70006E6D6C6C6B6A6A696868676666656464E6
:100F8000636362616160605F5F5E5E5D5D5C5C5B70
:100F90005B5A5A59595858575756565555555454DF
:100FA000535352525251515050504F4F4F4E4E4D3D
:100FB0004D4D4C4C4C4B4B4B4A4A4A494949484889
:100FC00048474747474646464545454444444443C9
:100FD00043434342424242414141002B9C4630D46C
:100FE00077002BD01CB54FEA370703B44FF0100041
:100FF0004FF01001BAF1000F06D0BCF1000FDCBFBA
:1010000040F0080040F008014FF000000FBCBDE8C0
:1010100010400BF1010BBBF1010F08BF5FEA17078E
:1010200022BF12F1010211F101014FF0004143F121
:10103000000300F0004043EA00007047F9D357086E
:10104000D0E746EA064613F1400F4FEA16461FDD89
:1010500013F1200FDFBF16430A46002120335B4205
:10106000BED0C3F1200746EA064602FA07F74FEA68
:10107000164646EA0706C3F1200722FA03F201FAF0
:1010800007F721FA03F14FF0000342EA0702A7E74E
:1010900046EA020646EA06464FEA164646EA0106D0
:1010A000BCBF46EA0646360C4FF000034FF0000284
:1010B0004FF0000194E72DE9804C9A46934670B4B6
:1010C00091E8380007C831EA400C48BF34EA430CC5
:1010D00003D5FFF7E6FDFFF780FFF0BCBDE8008C0D
:1010E0002DE9804C9A46934670B491E8380007C8C1
:1010F00010F0804F08BF13F0804F03D100F005F8C7
:10110000FFF76BFFF0BCBDE8008C20F07F4780EA62
:10111000030023F07F4C07EB0C03A3F57C5300F096
:101120000040A3F1FE0392F0000F00F0B38095F0B1
:10113000000F00F077802DE901494FEA11404FEA96
:10114000144621EA004800FB06FC24EA064708FB97
:1011500006F607FB08F800FB07F718EB06484CEB10
:10116000164C4FEA124B18EB07484FEA15464CEB6A
:10117000174022EA0B4E0BFB06FC25EA06470EFB46
:1011800006F607FB0EFE0BFB07F71EEB064E4CEBBD
:10119000164C4FF000061EEB074E4CEB174B18EBAE
:1011A0000B0840F1000018EB0E0B58EB000840F163
:1011B00000008F1A4FF000013CBFC943661B14BFEB
:1011C000B5EB040C00213CBFC943F61B4FEA1744A2
:1011D0004EEA8E0E27EA04454FEA1C4704FB0762DD
:1011E0002CEA074C05FB07F70CFB05F604FB0CFC8F
:1011F00016EB074642EB174216EB0C4642EB1C423D
:101200001BEB060658EB0202414146EA9E0601D559
:10121000BDE80189B619524141EB0101A3F1010377
:10122000BDE801894FEA14454FEA114724EA054613
:1012300021EA074C05FB07F406FB07F70CFB06F158
:1012400005FB0CFC11EB074144EB17444FEA124736
:1012500011EB0C4144EB1C4422EA074C05FB07F25E
:1012600006FB07F70CFB06F605FB0CFC16EB074626
:1012700042EB174216EB0C4642EB1C456A1854F140
:10128000000148BF7047B619524141EB0101A3F17B
:101290000103704795F0000F37D04FEA11424FEA33
:1012A000144721EA024624EA074C02FB07F106FB39
:1012B00007F70CFB06F402FB0CFC14EB074441EBB4
:1012C00017414FEA154714EB0C4441EB1C4125EA4A
:1012D000074C02FB07F506FB07F70CFB06F602FBC3
:1012E0000CFC16EB074645EB174516EB0C4645EB99
:1012F0001C42121951F1000148BF7047B619524102
:1013000041EB0101A3F1010370474FEA14454FEA95
:10131000114724EA054621EA074C05FB07F106FBC5
:1013200007F70CFB06F24FF0000605FB0CFC12EB76
:10133000074241EB174112EB0C4251EB1C4148BFF5
:101340007047921841EB0101A3F1010370470000BF
:10135000014801F048BA00003400002070B504468E
:1013600000688168C943C90717D1816821F001016C
:10137000816001F0B7FE05460AE000BF01F0B2FE51
:10138000401B022804D920688068C043C00706D0EB
:1013900020688068C043C007F0D0002070BDA06AFC
:1013A00040F01000A062E06A40F00100E06201201D
:1013B00070BD0000F8B500260446009600688168FC
:1013C000C943C9072DD0816841F0010181601648E9
:1013D00016490068B0FBF1F000E0401E00900028C4
:1013E000FBD101F07FFE054616E000BF01F07AFE5A
:1013F000401B022810D920688068C043C0070BD06A
:10140000A06A40F01000A062E06A40F00100E062D3
:1014100084F824600120F8BD20688068C043C007BC
:10142000E4D10020F8BD00000C00002040420F0075
:1014300010B5C0F30B0004F027FCBDE810400149D3
:1014400004F06ABCDB0FC93A38B50C0010D0022298
:10145000694600F04EF8002809D19DF800109DF86B
:10146000010001F00F0140EA01202080002038BD7A
:10147000012038BD012201461A2000F03AB8014689
:101480000E20FFF7E1BF10B504001CD000F02DF8CE
:10149000002819D1A01CFFF7F2FF002814D1201D4D
:1014A00000F01FF800280FD1A01DFFF7E3FF002870
:1014B0000AD1E01D00F027F8002805D1E079810667
:1014C00003D400200AE0012010BDC10601D502208E
:1014D00004E0000701D5032000E001202072002075
:1014E00010BD01461B20FFF7AFBF01460C20FFF7E0
:1014F000ABBF31B12AB113460A460146362004F08B
:1015000003B80120704710B504000CD00146012239
:101510000B20FFF7EEFF002804D1207800F0380000
:101520002070002010BD012010BD10B501F0DAFDC3
:101530004FF0E0214A698B694969D21A4FF47A73F6
:10154000521C5A43B2FBF1F100EB4002C2EBC01057
:1015500001EBC00010BDFEE7014801F0ABBB00008D
:10156000B801002030B590F840500124AC40C56B64
:101570006C60046863604368102B036803D0996053
:101580000068C26030BD9A600068C16030BD7047BD
:1015900072B6FEE710B510F1FF4F01D380F00040A6
:1015A000034904F0B9FBBDE81040024904F022BA37
:1015B00000007042E0ED2F4210B50446B0F9B810BB
:1015C000B0F9BC00A4F8BE1001EB400044F6E711EE
:1015D000484300F58040C0134042843400F012F9C3
:1015E000A087B4F93A0000F02AF944F8040CB4F9E1
:1015F0003C0000F024F9206010BD002800DA4042D1
:10160000002900DA4942884201DD024600E00A462C
:1016100000DD084600EB40004FF4804101EB003054
:1016200002EBE03000F0EEB810B50F2104F025FD1C
:101630000749884202DB47F6FF7010BDB0F1474F03
:1016400001D3044810BD04F0CBFA00B210BD000075
:1016500000FEFF460080FFFF10B5102104F00DFDD5
:10166000BDE8104004F0BCBA70B50446B0F9CA1029
:10167000B0F9DE21B4F9DC51B4F9CC3001FB02F051
:1016800003FB1500694303FB021500F58040C013FE
:10169000983400F0C7F8E08505F58045E81300F0C0
:1016A000C1F82086B4F92E0000F0C9F82060B4F922
:1016B000300000F0C4F8606070BD2DE9FE430027E3
:1016C00005463E464FF0C8083C46D5F814C0687F32
:1016D00001AB02AA6946E047BDF800000744BDF827
:1016E00004000644012001F0F5FB641CA4B244454B
:1016F000EBD3B7FBF8F004F0C7FA6867B6FBF8F075
:1017000004F0C2FAE867BDE8FE8370B50446B0F99C
:101710000800B4F90A104FF40042451A606880FBD3
:101720000501801841F10001000C40EA01402169E7
:10173000B4F90E200144914201DD114603E050420C
:10174000814200DA014620684FF4004680FB050321
:10175000801943F10003000C40EA03404318184687
:10176000934201DD104603E05642B04200DA3046B3
:10177000834208D0934201DD002D04DB52429342A4
:1017800002DA002D00DD216100F04CF8A08170BD6F
:1017900070B50446B0F9BE00B4F9DE31B4F9C0202A
:1017A000B4F9DC5100FB03F102FB05115A4300FBC5
:1017B000152501F58041C813903400F033F8608698
:1017C00005F58045E81300F02DF8A086B4F9320045
:1017D00000F035F82060B4F9340000F030F86060B3
:1017E00070BD0000B0F5004F02DB47F6FF70704798
:1017F0000349884201DA0846704700B2704700008A
:101800000080FFFFB0F5004F02DB47F6FF70704726
:101810000349884201DA0846704700B27047000069
:101820000080FFFFFFF7EEBFFFF7FEBE10B504F02C
:1018300013FABDE810406FF00E0104F01EBC10B5A5
:1018400004F00AFABDE810406FF00E0104F015BC78
:10185000094910B5884202DB04F066FB04E010F190
:10186000FF4F01D304F052F8044904F055FA04F094
:10187000D3F900B210BD0000DB0FC94083F9224646
:101880002DE9F041B0F9C65043F26D714D434FF46C
:101890008041B0F9C84001EB4505ED1305EB640646
:1018A000002376421A46A5EB6405002C02DD4FF0BA
:1018B000010E01E04FF0000E002E02DD4FF0010C92
:1018C00001E04FF0000C002D01DD012700E00027B2
:1018D0000EEB4C0C0CEB87074FF4E16C072F69D231
:1018E000DFE807F068040D16242D3B004F4A02275D
:1018F000564301EB4602C2F3CF334C4A29E04B4A30
:101900000627554301EB4502C2F3CF33474A09E0AE
:10191000012740F25732564301EB4602C2F3CF3360
:1019200040F25732544301EB440123E03F4A04277D
:10193000544301EB4402C2F3CF333C4A17E0032780
:1019400040F25732544301EB4402C2F3CF3340F22A
:101950005732554301EB45010CE0052740F2573261
:10196000554301EB4502C2F3CF3340F257325643A1
:1019700001EB4601C1F3CF329918614509D94FF403
:10198000E1646343B3FBF1F36243B2FBF1F19BB259
:101990008AB2991801F5E161C1F34F01CB1A9BB2EC
:1019A0009A1A92B2072F39D2DFE807F03806090EEB
:1019B000111419000027ECE78187C38701E08387B2
:1019C000C187A0F840200EE08287C18709E08287A6
:1019D000C38701E08387C287A0F8401003E08187B6
:1019E000C287A0F84030818F614501D9A0F83CC082
:1019F000C18F614501D9A0F83EC0B0F840106145E3
:101A000001D9A0F840C0457F8468B0F84030C28F4B
:101A1000818F2846A446BDE8F04160474FF46171CC
:101A20008187C187A0F84010EDE70000A9FCFFFF07
:101A300010B500F50042920912F44074C0F3871209
:101A40001649C2F1FF0316D0B4F5807F1CD0B4F55F
:101A5000007F09D0B4F5407F1FD131F8133031F841
:101A6000121063F31F400DE031F8122031F813100B
:101A700062F31F400FE031F8122031F81310524288
:101A800062F31F40494206E031F8133031F812107A
:101A90005B4263F31F4061F30F0010BDAC610008AF
:101AA00070B50446B0F9900104F5D074FFF7C0FF9B
:101AB000A063B4F93A00A087B4F93850E58704F080
:101AC000CBF86FF00E06314604F0D7FA20642846B2
:101AD00004F0C2F8314604F0D0FA606470BD000032
:101AE000014903F087BF00000C9ED2402DE9F04170
:101AF00004464FF08040FFF7F3FFFFF795FE0146E5
:101B00000022204603F052FE0021204600F0D8FBC0
:101B10000025C4F87C51C4F89851C4F89C51E06C7D
:101B200010F0FF4F3AD0D4E9160188423AD0666CE3
:101B3000E06594F86600012750B13046216E04F04C
:101B4000F3F91E4A1E49904208DD04F0EDF90AE05F
:101B50002666A4F8645084F8667014E0194A90422E
:101B600001D903F0D3FE184920F0004026668842D0
:101B700007DCB4F86400C82805D2401CA4F864004F
:101B800001E0A4F8645094F8670058B9B4F8640010
:101B9000C82807D3666584F8677003E0A4F864502A
:101BA00084F866502046FFF77BFF2046FFF75CFD78
:101BB0002046FFF765FE0020BDE8F081DB0F4940BD
:101BC000DB0FC940DB0F49C00AD7233C2DE9F84F92
:101BD0000446D0F8F801B0F5FA7F0ED2401CC4F8E4
:101BE000F80104F051F8634904F096F8624903F0F3
:101BF0008DFEFFF775FF064601E04FF07E56314639
:101C0000084604F089F88346204600F015FB009052
:101C10002046FFF7D1FC94F8EC01002704F1D00A2C
:101C200004F1EC0904F58E7504F5847820B1A16DFA
:101C3000D4F8E80181421CD0616D606C04F074F945
:101C400003F0E4FD4D4904F067F84FF0404104F023
:101C50006BF90146204600F033FBA16CC4F89411E7
:101C6000A16D0120C4F8E81184F8EC012046FFF7CB
:101C700017FF2046FFF78CFDC4F8E860C4F8D87061
:101C8000C4F804613046EC34FFF7CEFD6085E08790
:101C900034F82A0CE08434F8280C608754F8140CCB
:101CA000FFF7C2FCA084A068FFF7BEFC2087404677
:101CB000FFF72BFD2846FFF728FD4146504603F06D
:101CC00086FD2946484603F082FDB4F93C20B4F96C
:101CD0002810EC3C204603F069FDD4F8B40001461E
:101CE00004F01AF80646D4F8B000014604F014F8DF
:101CF000314603F00BFE594604F0DAF830D2B4F95D
:101D0000CC10B4F9CA00FFF778FCB4F9161138B357
:101D1000C90391FBF0F634F9CA0F704300F5804017
:101D2000C013FFF75FFD2080B4F90200704300F597
:101D30008040C013FFF756FD6080B4F90010A4F88E
:101D40004A10A4F85E000246CA3C204603F02EFD6D
:101D50004146504603F03BFD2946484603F037FD17
:101D60002046FFF781FC2046FFF78AFD0098BDE87A
:101D7000F88F00004260E53B000040400000E0407A
:101D8000014901EB402070477C02002070B50546F8
:101D90000C4800EB45242046657700F089F921685E
:101DA000284688472046FFF788FCE1682846884790
:101DB0000020A077C4F8F001012084F8FC01002085
:101DC00070BD00007C0200202DE9F04706468648E1
:101DD00000EB462494F8FC01012802D00220BDE863
:101DE000F087A07F4FF46177002558B17F4E4FF008
:101DF00003084FF4000901283FD002285DD00328D2
:101E00003AD1CEE03B46D4F808C0607F39461A4646
:101E1000E047C4F88C51C4F87C51C4F8E450C4F8CD
:101E20000051C4F81851C4F82C51C4F84451C4F8F6
:101E30006051C4F89C51C4F8A851A5646565A06DB3
:101E4000C4E91705A4F8645084F8665084F8675014
:101E500084F8EC51E07F012807D1C4F8C851C4F8D8
:101E6000D051C4F8CC51C4F8D451C4F8F051E16851
:101E7000304688470120A077B4E031462046FFF77E
:101E800035FED4F8F001401CC4F8F001B0F57A6FCB
:101E90007DD9E06C10F0FF4F79D094F867000028EE
:101EA00075D0C4F8F051D4F8BC01484501DB504866
:101EB00000E05048C4F87C0170E03146204600F054
:101EC000B3F8D4F8F0614C49761CC4F8F061D4F84A
:101ED000A001074603F020FF484903F08BFD484965
:101EE00020F0004004F020F842F2341120F00040CD
:101EF0008E4277D94349884274DA4348434900689F
:101F000020F0004088426DDAD4F8BC014E46B04261
:101F100027F0004001DA80F00040C4F8E450C4F833
:101F20007C0144F8E05F3A48A563A586C4E918053A
:101F30003848FFF7D5FD20623748FFF7D1FDE06153
:101F4000206AFFF771FCE064E069FFF76DFCA4F81C
:101F50004800D4F8DC00E03CB042304FD4F8A00197
:101F600005DBFFF717FB394603F0D0FC04E0FFF771
:101F700011FB394603F0CDFFC4F8C001D4F88C0141
:101F8000C4F89801C4F86051C4F89C0100E029E04D
:101F900084F8F451C4F8F85184F8EC5184F81E80A8
:101FA00020E0E07FD0B91E4BD4F8C0011D4A4FF0AD
:101FB0007E51984201D2084600E01046D4F8BCC1D8
:101FC0009C4500D3114603F0D7FD07D03B46A668D9
:101FD000607F39461A46B047A57703E03146204670
:101FE000FFF7F4FD0020FAE67C02002017B7513815
:101FF00058E95B4358E95BC300007042E0ED2F42B3
:10200000000096430000F04130000020CDCCCC3DD4
:102010006666D6400000C0403433D34000004842DA
:1020200000008080000080BF70B50D46044600F0BF
:1020300003F906462046FFF7BFFA2046FFF730FDBA
:102040002046FFF7A5FB1848FFF74AFDFFF7ECFB1A
:1020500002460021204603F0A9FB2846D4F8BC1113
:10206000124AD4F88C51B1F5000F06DB114603F08B
:1020700053FE294603F04AFC08E011F1FF4F06D356
:10208000114603F049FE294603F043FF0546294661
:10209000204600F015F92046FFF7E6FA2046FFF744
:1020A000EFFB304670BD00006666864058E95B4332
:1020B000F0B5B1B004461C22FEF77AF9A169607F41
:1020C00088471C22594913A8FEF772F91C2213A94C
:1020D00004F1D000FEF76CF9142109A8FEF79AF973
:1020E000534D2846FFF7B8FA524F09903846FFF78C
:1020F000B3FA4FF07E560A903046FFF795FBADF8E5
:102100003200142209A904F58470FEF751F94749F9
:102110001C221C311AA8FEF74BF91C221AA904F143
:10212000EC00FEF745F914210EA8FEF773F92846D6
:10213000FFF792FA0E903846FFF78EFA0F9030466E
:10214000FFF772FBADF8460014220EA904F58E705D
:10215000FEF72EF935491C22383121A8FEF728F95F
:102160001C2221A904F59870FEF722F92F491C22A0
:10217000543128A8FEF71CF91C2228A904F5A670E2
:10218000FEF716F9294900250839D1E90001CDE902
:102190002F01E063BDF8C000A4F8400004F1800006
:1021A000C4F88850C4F88C50056245626567A5671D
:1021B00024216846E567FEF72DF92422694604F1DB
:1021C0004400FEF7F5F8C4F87C51C4F8A051C4F8F7
:1021D0009851C4F89C51C4F88C51A4F89051A4F8BB
:1021E000DC5147F6FF70A4F8DE01C4E97856C4F864
:1021F000E85184F8EC51C4F8BC51C4F8C051C4E9AA
:102200006965C4F8AC51C4F8B051E577C4F8C4515D
:10221000C4F8C851C4F8CC51C4F8D051C4F8D45152
:10222000C4F8F051257731B00020F0BD3C610008C2
:10223000765B0341BCCB9B3F70B504460025406FE5
:1022400003F0CEFCB4F884110E1AE06F03F0C8FC62
:10225000B4F8881147F6FF73091AC6EBC60000EB05
:102260004002102000EB8202C1EBC10101EB4101F1
:1022700000EB810041115211D8439A4201DB1A460A
:1022800002E0824201DC02460325994201DB194645
:1022900002E0814201DC0146032510B2A4F8B80037
:1022A0000026A4F8BA60A4F8BC10FFF7BFFAC4E98E
:1022B0001A06B4F9BC00FFF7B9FA2067284670BDCA
:1022C00010B50446084603F0A1FAC4F88C01FFF7E4
:1022D000BFFAA4F8900110BD70B50E461149002553
:1022E00001EB4024E07F28B1C4F86051C4F85C5190
:1022F000C4F84451E5773146D4F8BC0103F014FE2C
:1023000020F00040B0F17E5F05DDC4F8A851C4F8AC
:10231000AC51C4F8B051C4F8BC610020C4F83861B5
:1023200070BD00007C0200202DE9F0410D463749C8
:1023300001EB402494F8FC01012864D1A07F344EC5
:10234000032860D1D4E96F0103F0B2FD0FD231460A
:10235000284603F0E1FCD4F8C01103F0D7FAC4F822
:10236000C001D4F8381103F0A3FD18D213E0D4E96A
:102370006F0103F09DFC12D23146284603F0CCFCDD
:10238000D4F8C01103F0C5FDC4F8C001D4F8381169
:1023900003F08EFC03D2D4F83801C4F8C001D4F89D
:1023A0009411D4F8C00103F0BFFD0746194903F0AA
:1023B000B3FC294603F0B0FCD4F8441103F0A6FAAC
:1023C000154E164DC4F84401B04202DDC4F8446114
:1023D00003E0A84201D9C4F844511149384603F03A
:1023E0009BFCD4F8441103F091FAB04201DD304671
:1023F00002E0A84200D92846C4F840010949F43453
:1024000003F0F8FA2060BDE8F08100007C020020B3
:1024100000007A444260E53B5E690C405E690CC096
:102420006F12033B0000A041F8B50025044600955B
:1024300090F8240001280BD0012084F824002046C5
:10244000FEF78CFF2046FEF7B5FF060002D050E0F5
:102450000220F8BDA06A20F4885040F00200A0627B
:10246000022001F0FDF825490968B1FBF0F04000B9
:1024700000E0401E00900028FBD12068816841F0F8
:102480000801816000F02EFE074608E000F02AFEF9
:10249000C01B0A2803D920688068000715D420686B
:1024A00080680007F2D42068816841F004018160EF
:1024B00000F018FE074612E000F014FEC01B0A28C8
:1024C0000DD920688068400709D5A06A20F0020075
:1024D00040F01000A06284F824500120F8BD20686C
:1024E00080684007E8D4A06A20F0020040F00100B4
:1024F000A06284F824503046F8BD00000C00002093
:10250000F8B50022009290F8244083681646012C0A
:102510001CD0012480F82440D3B14D680B691F24DE
:102520009D4226D81F055B1BC3F103030D6803EB17
:1025300083039D40A7F580172F439C40036844F414
:1025400040159C6BAC4327439F631EE00220F8BDFF
:102550004B68012B05D0826A42F020028262012280
:1025600013E003689C6B0D686FF3150444EAC534EF
:102570000AE05B1BC3F1030303EB83039C40036886
:1025800044F440159C6BAC439C6303689C68E44333
:10259000E40706D09C6847F20105AC438D692C43E3
:1025A0009C604B7D012B08D18B69B3F5E04F08D0BF
:1025B000826A42F02002826201220B7D012B06D04A
:1025C0000CE003685C6844F480645C60F5E74B7D74
:1025D000A3B1826A42F02002826201220B680724C2
:1025E00005680A2B10D3EF680A3B03EB43039C40BA
:1025F000A7438C689C402743EF600EE003685C684B
:1026000044F480545C60E9E72F6903EB43039C408A
:10261000A7438C689C4027432F610B68102B01D087
:10262000112B04D103689C6844F400049C604B683F
:10263000012B10D0022B16D0032B03681BD01C6A71
:10264000CD686FF30B042C431C620B68102B19D060
:10265000112B17D037E003685C69CD686FF30B046A
:102660002C435C61F1E703689C69CD686FF30B0450
:102670002C439C61E9E7DC69CD686FF30B042C43C4
:10268000DC61E2E7124C0368A34217D19C68240284
:1026900019D49C6844F400049C600968102912D184
:1026A0000C490D4B0968B1FBF3F101EB81014900C5
:1026B00000E0491E00910029FBD104E0816A41F04D
:1026C00020018162012280F824601046F8BD0000DC
:1026D000002401400C00002040420F0070B5054668
:1026E0000068114988421ED10120FFF749FB0F4CB9
:1026F0000121216090F8FC11012906D100F5C47375
:102700009A1E911E46690120B0472868416841F031
:10271000800141600120FFF757FB022800D12060B3
:102720004FF48030206070BD00240140100C014047
:1027300070B5044690F8240001280DD0012084F8DB
:1027400024002046FEF736FE01004FF0000005D0C1
:1027500084F82400084670BD022070BDA26A42F2CF
:1027600001039A4342F48052A2621C4A25681C4B22
:1027700095421FD11E6816F4702F1BD0A66A46F42E
:102780008016A662A66AF60500D4E06284F82400EA
:102790006FF0040028602068456845F080054560BA
:1027A000206844686405D5D48468C4F30234072CD7
:1027B00004D009E0A66A26F48016E2E7904208D128
:1027C0001A6812F4702F04D0826842F400428260CA
:1027D000C0E7826842F40212F9E7000000280140D5
:1027E00004240140704770B50446006806684568D7
:1027F000A90625D5B10723D5A16AC90603D4A16AC4
:1028000041F40071A1628168C1F34241072910D1EE
:10281000217B71B9416821F020014160A06A20F458
:102820008070A062A06AC00403D4A06A40F00100D6
:10283000A0622046FFF7D6FF21686FF01200086003
:1028400028062ED570072CD5A06AC00603D4A06A2E
:1028500040F40050A06220688168C1F3023107296A
:1028600009D04168490515D48168C1F3424107295F
:1028700010D1217B71B9416821F080014160A06ACB
:1028800020F48050A062A06AC00503D4A06A40F082
:102890000100A0622046FFF721FF21686FF00C00C5
:1028A000086068060CD5F0070AD0A06A40F48030B2
:1028B000A062204600F094F821686FF001000860E3
:1028C00070BD00002DE9F0414FF0000704003D46C7
:1028D0007ED0A06A002628B9E66284F824602046EB
:1028E00000F080F82046FEF739FDA16AC90600D441
:1028F00020B1A06A40F01000A06269E0A16A21F452
:10290000885141F00201A1626268E169237B0A43B8
:1029100047EA43010A43A1684FF48077B94209D0DE
:10292000012907D05FF0000194F814C0BCF1010F39
:1029300002D00AE03946F7E7F3B1A36A43F0200377
:10294000A362E36A43F00103E3622368D3F804C09F
:102950002CF4694C4CEA010CC3F804C021688B6864
:10296000DFF870C003EA0C0313438B60A168B9421F
:102970000BD0012909D00CE0DFF85CC0A3690CEB97
:1029800043330B4343F40061DFE7218A0D05A5F5CE
:1029900080152168CB6A23F470032B43CB62216836
:1029A00089680E4B1940914208D1E662A16A21F074
:1029B000020141F00101A162BDE8F081A06A20F0AE
:1029C000020040F01000A062E06A40F00100E06206
:1029D0000120F1E7FDF7E1FF00E0FFFFFE0E1FFF22
:1029E0007047000000B585B000210091019102916F
:1029F000039100681249884220D11248816941F44C
:102A000000718161816901F400710491816941F073
:102A1000040181618069694600F00400049030205F
:102A2000009003200190084800F066FA0022114649
:102A3000122000F0E3FD122000F0D2FD05B000BD31
:102A400000240140001002400008014070B504005D
:102A500003D094F8200010B104E0012070BD20469E
:102A600000F082F82068016841F00101016000F087
:102A700039FB0546052604E000F034FB401B0A281C
:102A800011D820684068C007F6D02068016821F09E
:102A90000201016000F026FB05460BE000F022FB7E
:102AA000401B0A2806D9606A40F40030606284F84E
:102AB0002060D2E7206840688007EFD4207E01289C
:102AC000206801683DD021F080010160607E01280E
:102AD0002068016838D021F040010160A07E012803
:102AE0002068016833D021F020010160E07E0128D8
:102AF000206801682ED041F010010160207F01287C
:102B00002068016829D021F008010160607F012858
:102B10002068016824D021F004010160D4E9020199
:102B20000843D4E90412114308436168491E08436D
:102B30002168C86100206062012084F82000002024
:102B400070BD41F08001C0E741F04001C5E741F0B0
:102B50002001CAE721F01001CFE741F00801D4E7D6
:102B600041F00401D9E7000010B586B000210091C2
:102B700001910291039100681349884222D11348C0
:102B8000C16941F00071C161C16901F00071049136
:102B9000816941F00401816180690D4C00F00400FD
:102BA00004904FF4006000906946204600F0A4F9BC
:102BB000A014009002200190032003906946204653
:102BC00000F09AF906B010BD006400400010024009
:102BD0000008014010B590F821100022022905D00C
:102BE0000421816380F82020012010BD01680B685A
:102BF00023F00E030B6001680B6823F001030B60E8
:102C000090F84030C46B012101FA03F3636080F84F
:102C1000211080F82020104610BD000010B590F85B
:102C200021100024022903D00421816301243DE006
:102C300001680A6822F00E020A6001680A6822F040
:102C400001020A601A4A0168914201D1012121E082
:102C5000174A1432914201D110211BE0144A283244
:102C6000914201D1891515E0114A3C32914201D1BE
:102C700089140FE00E4A5032914202D14FF4803154
:102C800008E00B4A6432914202D14FF4801101E016
:102C90004FF08071064A083A5160012180F82110F6
:102CA000002180F82010416B01B18847204610BDFB
:102CB000080002402DE9F05FC16B0C6801680B68E9
:102CC000D0F840C0042202FA0CF2494DDFF824A1EA
:102CD000494E4A4FDFF828B1DFF828E122422CD0D4
:102CE0005A072AD50A68920603D40A6822F0040219
:102CF0000A600168A94201D1042219E0514501D1BD
:102D0000402215E0B14202D14FF4806210E0B94296
:102D100002D14FF480420BE0594502D14FF480229A
:102D200006E0714502D14FF4800201E04FF080626D
:102D30002F4908394A60C16A3BE04FF0020808FA9F
:102D40000CF818EA040F4FF000094FF0010235D0DB
:102D50005FEA837832D50B689B0605D40B6823F0B5
:102D60000A030B6080F821200168A94201D10222E8
:102D700019E0514501D1202215E0B14202D14FF4B2
:102D8000007210E0B94202D14FF400520BE05945F5
:102D900002D14FF4003206E0714502D14FF4001227
:102DA00001E04FF00072124908394A6080F8209023
:102DB000816A00291AD0BDE8F05F0847082505FAA6
:102DC0000CF5254212D01B0710D50B6823F00E031B
:102DD0000B6090F84010C36B02FA01F159608263F6
:102DE00080F8212080F82090016BE2E7BDE8F09F99
:102DF000080002401C000240300002404400024033
:102E0000580002406C00024030B528B308C813498E
:102E100014221944B1FBF2F18900C16310498163A6
:102E2000022141771A6843F6F0718A43D0E9001411
:102E30002143D0E902452C432143046921434469DD
:102E40002143846921431143196000214163012218
:102E500042770177084630BD012030BDF8FFFDBF45
:102E60000000024070B5044690F8200000250128BB
:102E70000CD0012084F8200094F821600020012E5D
:102E800006D084F820000225284670BD022070BDBF
:102E9000022684F82160A0632068066826F00106F7
:102EA00006602046FEF75EFBE06A002820680168A5
:102EB00002D041F00E0106E021F00401016020681B
:102EC000016841F00A0101602068016841F00101D8
:102ED0000160D9E770B5044600F004F90546601CAE
:102EE00002D004480078044400F0FCF8401BA042E3
:102EF000FAD370BD000000202DE9F84FDFF8B8913B
:102F00000024A9F1040B23460F2709F1040AABF1B1
:102F1000040EC9E00125A5402A40AA427DD1674E92
:102F2000D1F804C0ACEB0608B44532D014DCBCF1D7
:102F3000030F3AD009DCBCF1000F2AD0BCF1010F1D
:102F40001CD0BCF1020F31D11DE0BCF1110F17D024
:102F5000BCF1120F2AD119E0B8F5881F19D006DC90
:102F6000B8F5803F15D0B8F5801F1FD111E0B8F536
:102F7000001F0ED0B8F5041F18D10AE0CB6815E089
:102F8000CB681B1D12E0CB6808330FE0CB680C3315
:102F90000CE08B682BB1012B4FF0080303D0456187
:102FA00004E0042302E0056100E00023FF2A01D8C9
:102FB000064601E000F104064FEA840501D9A5F1B7
:102FC0002005D6F8008007FA05FC28EA0C0803FA69
:102FD00005F548EA0508C6F800804D68ED0062D5A1
:102FE000374DAE6946F00106AE61AD6924F00306C7
:102FF00005F001050095334D06EB050CDCF8085093
:10300000A607360F07FA06F825EA0805DFF8B880A4
:10301000404503D14FF0000817E044E0DFF8AC80F2
:10302000404502D14FF001080FE0DFF8A480404591
:1030300002D14FF0020808E0DFF89880404502D145
:103040004FF0030801E04FF0040808FA06F848EAD8
:103050000508CCF808804D68D9F80060ED024D46AF
:1030600001D5164300E096432E604D68DAF8006003
:10307000AD02554601D5164300E096432E604D68DB
:10308000DBF80060AD035D4601D5164300E09643D2
:103090002E604D68DEF80060ED03754601D51643DD
:1030A00000E096432E60641C0D682A46E5407FF4DC
:1030B00031AFBDE8F88F0000080401400000111096
:1030C000001002400000014000080140000C0140D7
:1030D00000100140001401400AB101617047090469
:1030E000FBE70000014880687047000000000020F6
:1030F00070B5040025D094F83D00002520B984F86F
:103100003C50204600F0E6F9242084F83D00206879
:10311000016821F0010101602068016841F400416B
:1031200001602068016821F40041016000F0F6FBB5
:103130004D4A6168914201D84C4900E04C498842AF
:1031400001D2012070BD4B492368B0FBF1F15E68EC
:1031500026F03F060E435E606368934206D94FF443
:10316000967359434FF47A73B1FBF3F12368491C0A
:103170001E6A26F03F06314319626168914210D8F9
:103180004900401EB0FBF1F2521CC2F30B02042AAC
:1031900001D2042022E0B0FBF1F0401CC0F30B0090
:1031A0001CE0A268F2B301EBC10303EB0116431E5E
:1031B000B3FBF6F35B1C43F480431B0549D092B389
:1031C00001EBC10202EB0111401EB0FBF1F0401C0B
:1031D000C0F30B0040F4804040F400402168CA690D
:1031E0004CF6FF739A431043C861D4E907100143BA
:1031F0002068026822F0C00211430160D4E9030193
:1032000001432068826848F2FF339A43114381608A
:10321000D4E9050108432168CA6822F0FF0210437F
:10322000C86001E00EE016E02068016841F001018D
:1032300001602564202084F83D00256384F83E5019
:10324000002070BD01EB4106431EB3FBF6F35B1C8F
:10325000B3E70120C2E701EB4101401EB0FBF1F0F2
:10326000401CC0F30B00B7E7A086010080841E005D
:1032700000093D0040420F002DE9FF4F83B00025BB
:10328000DDE910799A4693460446DDF848800095BA
:10329000FFF728FF064694F83D0020287CD119232B
:1032A000012288492046009601F0BAFA0028F5D19B
:1032B00094F83C0001286FD0012084F83C0020687D
:1032C0000168C90703D1016841F00101016020686C
:1032D000016821F400610160222084F83D00402053
:1032E00084F83E0025646762A4F82A90608D2085EA
:1032F0007548E062CDE9008653465A462046049957
:1033000001F010FA00287CD1208DDFF8C091202731
:1033100068B1012814D00228206801681ED041F449
:10332000806101602068416980690090BCE020688C
:10333000416981690091016841F400710160B3E065
:103340002068016821F48061016072B620684169DB
:1033500081690091016841F400710AE041F4006163
:10336000016072B62068416981690091016821F4A9
:103370008061016062B697E0032865D801280CD00F
:10338000022843464FF000024946204600960BD0E3
:1033900001F046FAA8BB0CE091E0324641462046D7
:1033A00001F0E4FA68BB72E001F03AFA48BB72B689
:1033B00033E02068016821F48061016072B6206802
:1033C0000069616A0870606A401C6062208D401E5E
:1033D0002085608D401E60853D4846F2A81100683A
:1033E000B0FBF1F0C0EBC00000EB80000090401E8D
:1033F000009007D020684069C04340070DD5009871
:10340000F5E727E044F8305F6773A573206940F063
:103410002000206162B625731CE02068016841F439
:103420000071016020680069616A0870606A401C70
:103430006062218D491E2185618D491E618562B6BC
:1034400021680969017026E032464146204601F0B4
:103450008DFA18B1012007B0BDE8F08F206800692F
:10346000616A0870606A401C6062208D401E81B2F3
:103470002185608D401E608520684269D2435207D5
:1034800012D4032903D1016821F48061016020680E
:103490000069616A0870606A401C6062208D401E8D
:1034A0002085608D401E6085208D00287FF464AFEC
:1034B00084F83D7084F83E5084F83C50CBE70220FD
:1034C000C9E70000020010000000FFFF0400010037
:1034D0000C00002010B586B00021009101910291EE
:1034E000039100680F4988421AD10F4CA06940F03F
:1034F0000800A061A069694600F008000490C0209F
:10350000009012200190032003900848FFF7F4FC7C
:10351000E06940F40010E061E06900F400100490FC
:1035200006B010BD0054004000100240000C0140E5
:1035300002488168027811448160704700000020D1
:10354000074810B5016841F010010160032000F048
:1035500075F80F2000F006F800F024F8002010BDE8
:103560000020024070B50D4D04464FF47A71287862
:10357000B1FBF0F00A490968B1FBF0F000F0A4FBE0
:1035800048B9102C07D200222146501E00F036F810
:1035900000206C6070BD012070BD000000000020A4
:1035A0000C0000200C4808B5816941F001018161DF
:1035B000816901F001010091C16941F08051C1614F
:1035C000C06900F0805000900448416821F0E0613B
:1035D00041F00071416008BD001002400000014050
:1035E000002809DB00F01F02012191404009800002
:1035F00000F1E020C0F8001170470000F0B40E4B5D
:103600001B680C46C3F30223C3F10705042D00D940
:103610000425191D072901D2002300E0DB1E012625
:1036200006FA05F1491E214099409E40761E16403B
:103630003143F0BC01F061BE0CED00E0064900F042
:10364000070208684FF6FF03184040EA0220034AC9
:1036500010430860704700000CED00E00000FA0520
:1036600010B501460020234C012922D0022939D06F
:1036700010291DD161682268D20119D51E48C1F3F5
:103680008342C903805C0AD561681B4AC1F340418B
:10369000921E515C194AB2FBF1F1484301E018490E
:1036A00048436168490203D440000321B0FBF1F0B4
:1036B00010BD226AC2F30121012903D1920701D56D
:1036C000C80310BD022905D1626A920702D549F6E6
:1036D000404010BD0329FCD121688903F9D54FF280
:1036E000244010BD00F02AF96168C1F38131491C02
:1036F0004900DBE7001002400A61000800127A006E
:1037000000093D002DE9F84305460078354CC00717
:1037100054D0E0690026C00008D4E06940F0805031
:10372000E061E069012600F0805000902E480168B9
:10373000C90512D40168804641F480710160FFF729
:10374000D1FC074605E000BFFFF7CCFCC01B642896
:1037500023D8D8F80000C005F6D5206A10F44070D0
:1037600021D0A98801F4407181421CD0206A1F49F0
:10377000012220F440700A6000220A602062C00723
:1037800011D0FFF7AFFC074641F2883808E000BFD0
:10379000FFF7A8FCC11B414502D90320BDE8F8830F
:1037A000206A8007F4D5206A696820F440700843D5
:1037B00020621EB1E06920F08050E0612878800727
:1037C00005D56068A96820F4404008436060287807
:1037D000C00605D56068E96820F480000843606091
:1037E0000020DBE70010024000700040400442422D
:1037F0002DE9F0470F46050061D0434E306800F0D8
:103800000700B84209D2306820F007003843306022
:10381000306800F00700B84251D128683B4C81075E
:1038200012D5400703D5606840F4E06060602878F6
:10383000000703D5606840F4605060606068A96864
:1038400020F0F000084360602878C00728D068683E
:10385000012810D02168022810D0890700292EDA0B
:10386000616821F0030101436160FFF73BFC804682
:1038700041F288390DE021688903EFE78901EDE71E
:10388000FFF730FCA0EB0801494502D90320BDE851
:10389000F0876068696800F00C00B0EB810FEFD131
:1038A000306800F00700B8420BD9306820F00700FC
:1038B00038433060306800F00700B84201D0012082
:1038C000E5E72878400705D56068E96820F4E060FE
:1038D000084360602878000706D56068296920F4ED
:1038E000605040EAC100606000F038F86168084A42
:1038F000C1F30311515CC8400649086006480068DE
:10390000FFF730FE0020C2E7002002400010024016
:103910001A6100080C00002004000020044805493A
:1039200000684968044AC1F30221515CC8407047ED
:103930000C000020001002402A61000804480549DC
:1039400000684968044AC1F3C221515CC84070470D
:103950000C000020001002402A6100080E4A516845
:103960000E4801F00C03042B11D0082B0FD10C488A
:10397000C1F38343C903C05C0AD55168084AC1F347
:103980004041921E515C054A5043B0FBF1F0704734
:1039900004494843704700000010024000127A00BA
:1039A000F860000800093D002DE9F84F040070D0D0
:1039B0002078C04DC00749D06868C0F38100012855
:1039C00007D06868C0F38100022809D16868C00385
:1039D00006D52868800339D560680028E7D035E02F
:1039E0006068B0F5803F0BD010B1B0F5A02F11D0BA
:1039F000286820F480302860286820F4802002E0C5
:103A0000286840F480302860606890B1FFF76AFB56
:103A100006460AE0286840F480202860F0E700BFEE
:103A2000FFF760FB801B642873D828688003F7D5F4
:103A30000CE0FFF757FB064605E000BFFFF752FB1F
:103A4000801B6428F0D828688003F7D420789A4E29
:103A500080074FF001094FF0000839D5686810F071
:103A60000C0F07D06868C0F38100022809D168688C
:103A7000C00306D42868800714D52069012808D11E
:103A800010E02069B0B1C6F80090FFF72BFB0746A5
:103A900005E00AE1FFF726FBC01B0228C4D828680E
:103AA0008007F7D52868616920F0F80040EAC10076
:103AB00028600DE0C6F80080FFF714FB074604E01D
:103AC000FFF710FBC01B022823D828688007F7D413
:103AD000207800072CD57948A169D9B1C0F80090A9
:103AE000FFF700FB074604E0FFF7FCFAC01B0228C3
:103AF0000FD8686A8007F7D571484FF4FA5100680B
:103B0000B0FBF1F0009000BF0098411E0091FAD286
:103B10000EE080E0C0F80080FFF7E4FA074604E01A
:103B2000FFF7E0FAC01B022875D8686A8007F7D44F
:103B30002078400760D5E8690027C00008D4E8690C
:103B400040F08050E861E869012700F08050009063
:103B50005C480168C90513D40168834641F480714B
:103B60000160FFF7BFFA824606E000BFFFF7BAFA2E
:103B7000A0EB0A0064284ED8DBF80000C005F5D59C
:103B8000E06801280AD008B1052813D0286A20F07F
:103B900001002862286A20F0040002E0286A40F050
:103BA00001002862E06841F2883B98B1FFF79AFA79
:103BB00082460BE0286A40F004002862EEE700BF6E
:103BC000FFF790FAA0EB0A0159455AD8286A8007F6
:103BD000F6D50CE0FFF786FA824605E0FFF782FA99
:103BE000A0EB0A0159454CD8286A8007F6D41FB1CA
:103BF000E86920F08050E861E06988B36968C1F342
:103C00008101022944D00228C6F8608004D0FFF761
:103C100069FA044638E034E0FFF764FA074604E046
:103C2000FFF760FAC01B02282BD828688001F7D460
:103C3000206AB0F5803F05D16868A16820F40030A3
:103C400008436860D4E908010843696821F47411E5
:103C500008436860C6F86090FFF744FA044606E03F
:103C600025E000BFFFF73EFA001B022809D82868AC
:103C70008001F7D51BE000BFFFF734FA001B0228D4
:103C800002D90320BDE8F88F28688001F4D40EE043
:103C90000128F7D06868226A00F48031914204D18B
:103CA000616A00F47010884201D00120EAE7002028
:103CB000E8E7000000100240000042428004424257
:103CC0000C0000200070004010B5401EB0F1807F55
:103CD00001D3012010BD4FF0E02460610F21601777
:103CE00001F00BFB0020A06107202061002010BD27
:103CF0007047704770B590F83C20012A26D0012407
:103D000080F83C40022280F83D2003685A689D6894
:103D100022F070060A6832435A600D4B02689A42DC
:103D200008D0B2F1804F05D00A4B9A4202D00A4B1C
:103D30009A4204D1496825F080031943916080F8C4
:103D40003D40002180F83C10084670BD022070BD47
:103D5000002C0140000400400008004010B50400A1
:103D600003D094F83D0010B107E0012010BD002001
:103D700084F83C00204600F01FF8022084F83D0043
:103D8000211D206801F038F8012084F8460084F8ED
:103D90003E0084F83F0084F8400084F8410084F835
:103DA000420084F8430084F8440084F8450084F815
:103DB0003D00002010BD000008B501681048B1F1B9
:103DC000804F14D00F4A914219D1C16941F00201CC
:103DD000C161C069002200F00200009001211D2095
:103DE000FFF70CFCBDE808401D20FFF7F9BBC169D7
:103DF00041F00101C161C06900F00100009008BDFF
:103E0000001002400004004090F83D10012901D04C
:103E100001207047022180F83D1000680B4988425C
:103E200008D0B0F1804F05D00949884202D0094935
:103E3000884204D1816801F00701062903D0016896
:103E400041F001010160002070470000002C01409A
:103E5000000400400008004070B5044690F83C00A3
:103E60000025012817D0012684F83C60022084F840
:103E70003D002068826822F0770222F47F4282604F
:103E80000868502838D00DDC20284FD005DC90B3CE
:103E9000102811D14AE0022070BD302846D04028B9
:103EA0000AD13BE060282FD070280DD0B0F5805F9C
:103EB00003D0B0F5005F12D0012584F83D600020EA
:103EC00084F83C00284670BDCB68D1E90121206808
:103ED00000F0DBFF2068816841F0770109E0CB68E2
:103EE000D1E90121206800F0D0FF2068816841F409
:103EF00080418160E1E719E0CA684968206801F003
:103F000079F85021206806E0CA684968206801F005
:103F100082F86021206800F0C2FFCEE7CA684968D5
:103F2000206801F067F840212068F4E72268014624
:103F30001046F0E770472DE9F04104460068C66876
:103F400005694FF00007A90713D5B10711D5F91E70
:103F5000016101202077206880698007204602D017
:103F6000FFF7E8FF04E000F0A3F8204600F035F981
:103F70002777680716D5700714D521686FF00400FD
:103F80000861022020772068806910F4407F204675
:103F900002D0FFF7CFFF04E000F08AF8204600F0DF
:103FA0001CF92777280715D5300713D521686FF03E
:103FB00008000861042020772068C0698007204637
:103FC00002D0FFF7B7FF04E000F072F8204600F0DF
:103FD00004F92777E80616D5F00614D521686FF0A6
:103FE00010000861082020772068C06910F4407F25
:103FF000204602D0FFF79EFF04E000F059F820466B
:1040000000F0EBF82777E80708D0F00706D0216822
:104010006FF001000861204600F066F9280608D517
:10402000300606D521686FF0800008612046FFF752
:104030005FFE680608D5700606D521686FF040005F
:104040000861204600F051F9A8060AD5B00608D547
:1040500021686FF0200008612046BDE8F041FFF7BD
:1040600048BEBDE8F081000000B585B00021009198
:104070000191029103910068B0F1804F11D10A487B
:10408000816941F0040181618069694600F00400A2
:104090000490072000900220019003900348FEF74F
:1040A0002BFF05B000BD00000010024000080140D9
:1040B000704770B5044690F83C0000260D46012874
:1040C0000FD0012084F83C006AB1042A1DD0082AD0
:1040D0002FD00C2A3FD00126002084F83C00304627
:1040E00070BD022070BD206800F0E2FE206881698A
:1040F00041F0080181612068816921F0040181613A
:10410000206881692A69114311E0206800F0F8FEF7
:104110002068816941F4006181612068816921F42E
:1041200080618161206881692A6941EA0221816197
:10413000D2E7206800F010FF2068C16941F0080153
:10414000C1612068C16921F00401C1612068C169B1
:104150002A69114311E0206800F02AFF2068C16934
:1041600041F40061C1612068C16921F48061C161CD
:104170002068C1692A6941EA0221C161ACE710B532
:10418000040003D094F83D0010B107E0012010BDF9
:10419000002084F83C00204600F01EF8022084F83D
:1041A0003D00211D206800F027FE012084F8460014
:1041B00084F83E0084F83F0084F8400084F8410011
:1041C00084F8420084F8430084F8440084F84500F1
:1041D00084F83D00002010BD7047704710B50446BC
:1041E000022249B104290ED0082913D094F84100C5
:1041F000012816D0012010BD94F83E000128F9D105
:1042000084F83E200FE094F83F000128F2D184F8B2
:104210003F2008E094F840000128EBD184F84020CA
:1042200001E084F841200122206800F021FE0F49BE
:104230002068884203D1426C42F400424264206804
:10424000884208D0B0F1804F05D00949884202D099
:104250000849884204D1816801F00701062903D08A
:10426000016841F001010160002010BD002C0140F7
:10427000000400400008004030B504460D460068C8
:10428000002200F0F5FD174B41F2111120688A1051
:10429000984209D1036A0B4206D1036A134203D143
:1042A000436C23F4004343642068036A0B4206D145
:1042B000016A114203D1016821F00101016001206E
:1042C0003DB1042D08D0082D09D084F8410000200C
:1042D00030BD84F83E00FAE784F83F00F7E784F841
:1042E0004000F4E7002C014070477047704770476A
:1042F000F8B5016804460868CA684B6910F00F0FEA
:104300004FF0000559D003F0010602F490773743CF
:1043100065D0C10705D0D10503D5616C41F001011D
:104320006164410705D5D90703D0616C41F00201F2
:104330006164810705D5D90703D0616C41F00401A0
:104340006164010707D502F02001314303D0616C9D
:1043500041F008016164616C00293AD0800604D5FF
:10436000900602D5204600F0F0FE20684069616C9E
:10437000C0F38010090700D460B3204600F0B0FEFF
:1043800020684069400621D52068143050E8001F9D
:1043900021F0400140E80012002AF5D1E06BA8B1FD
:1043A0006D494163E06BFEF739FC002811D0E06BEA
:1043B000416B01B0BDE8F040084783060FD5930676
:1043C0000DD52046BDE8F84000F0BFBE2046FFF7FF
:1043D0008EFFF8BD2046FFF78AFF6564F8BD266BA7
:1043E0002023012E7CD1C6067AD5D60678D508685A
:1043F0004868009048694FF00206400640D5E16BDE
:10440000086840680004000CE8D0A28D8242E5D91B
:10441000E085886920282DD020680C3050E8001FE6
:1044200021F4807140E80012002AF5D12068143090
:1044300050E8001F21F0010140E80012002AF5D1E8
:104440002068143050E8001F21F0400140E80012BD
:10445000002AF5D184F84230256320680C3050E8FA
:10446000001F21F0100140E80012002AF5D1E06B96
:10447000FEF7B0FB6663A08DE18D401A81B22AE0A1
:10448000A08DE18D401A81B2E08D0028A6D00029D0
:10449000A4D022680C3252E8000F20F4907042E859
:1044A0000007002FF5D12068143050E8002F22F0CB
:1044B000010240E80027002FF5D184F8423025633F
:1044C00020680C3050E8002F22F0100240E8002352
:1044D000002BF5D166632046FFF708FFF8BDFFE724
:1044E00005062BD5150629D594F841002128F5D1CC
:1044F000A068B0F5805F01D12069B0B1206A411C8D
:104500002162216800784860E08C401E0004000CA5
:10451000E084E3D12068C16821F08001C160206897
:10452000C16841F04001C160D8E7206A0088C0F34B
:1045300008004860206A801C2062E5E74006CDD56F
:104540005006CBD5CA68204622F04002CA6084F8E3
:10455000413000F0CBF8C1E73B50000870B50400D3
:1045600004D094F84100002510B106E0012070BD90
:1045700084F84050204600F023F8242084F84100BD
:104580002068C16821F40051C160204600F03EFE61
:104590002068016921F4904101612068416921F09E
:1045A0002A0141612068C16841F40051C16065641D
:1045B000202084F8410084F842006563002070BD2B
:1045C00070B586B0002506460095019502950395C5
:1045D0000068224988423FD12149886940F48040DF
:1045E0008861886900F480400490886940F0040084
:1045F000886188691B4C00F0040004904815009005
:10460000022001900320039069462046FEF774FCC7
:104610002015CDE90005694620460295FEF76CFCA1
:10462000124C114820601020C4E901058020C4E923
:1046300003056561A5612046E561FEF7E5FB08B16C
:10464000FCF7A6FFB4630022114625206662FEF740
:10465000D5FF2520FEF7C4FF06B070BD003801402D
:10466000001002400008014044000240B801002050
:104670007047000070B5044690F84100202801D032
:10468000022070BD49B342B32162A284E2840020BB
:104690006064212384F84130A56B114BAB62A56B9C
:1046A000104BEB62A56B104B2B63A36B5863256813
:1046B00013462A1DA06BFEF7D5FB21686FF0400062
:1046C00008602068143050E8001F41F0800140E885
:1046D0000012002AF5D1002070BD012070BD00003D
:1046E00095500008D75000084B50000800F036BF26
:1046F0007047FEE701684A69D24352050FD46FF450
:1047000080624A61002140F8301F20224273817389
:10471000026942F004020261017301207047002027
:10472000704700002DE9F84F0446006889460B9D4C
:1047300001689846174641F480610160206801686D
:1047400041F48071016000954FF0011B0022594631
:1047500020460A9B00F064F84FF4007A40B12068CC
:104760000068C00501D5C4F840A00320BDE8F88F5B
:10477000216809F0FE0008612B46284920460A9A64
:1047800000F096F8F0BB20684169806900902A46E5
:1047900020460A9900F022F940B1206C04283AD151
:1047A0002068016841F40071016034E0FEB2B8F1A4
:1047B000010F09D02168380A08612A4620460A9963
:1047C00000F00CF90028E8D1206806612A4620464E
:1047D0000A9900F003F90028DFD12068016841F44C
:1047E0008071016000950022594620460A9B00F026
:1047F00017F80028B3D1216809F0FF0040F001004C
:10480000086100E007E02B46044920460A9A00F0C0
:104810004FF80028AAD00120A8E7000002000100FC
:104820002DE9F047984617460D460446C1F3074662
:10483000DDF820902AE000BFB8F1FF3F26D0FEF758
:1048400051FCA0EB0901414502D8B8F1000F1DD180
:104850002068012E16D0806925EA00000004000CB3
:1048600012D00020B84211D1002044F8300F20218E
:104870006173A073216941F020012161207301203F
:10488000BDE8F0874069E7E70120EBE72068012EEB
:104890000AD0806925EA00000004000C06D0002040
:1048A000B842C9D00020EBE74069F3E70120F7E701
:1048B0002DE9F047984616460D4604464FF000098C
:1048C0004FF0200AC1F3074723E020684069C04346
:1048D000400515D42068016841F400710160216829
:1048E0006FF480604861C4F8309084F83DA084F88B
:1048F0003E90216C41F00401216484F83C9021E059
:10490000701C06D0FEF7EEFBA0EB0800B04203D807
:1049100016B1012F1FD021E02068012F15D080692A
:1049200025EA00000004000C18D000BF44F8309FB6
:1049300084F80DA084F80E90216941F020012161D6
:1049400084F80C900120BDE8F087406925EA00005A
:104950000004000CEAD12068406901E02068806909
:1049600025EA00000004000CAFD1ECE72DE9F0418E
:10497000002590460E460446202728E04069C043A3
:10498000C0060CD454F8301B6FF01000486144F896
:1049900010596777A577206A2062257714E0FEF723
:1049A000A1FBA0EB0800B04200D886B9206840699E
:1049B000C04340060BD544F8305F6773A573206988
:1049C00040F02000206125730120BDE8F0812068BF
:1049D0004169C9434906D1D40020F6E770B51646AF
:1049E0000D4604461EE02046FFF784FE08B1012074
:1049F00070BD681C16D0FEF775FB801BA84200D85E
:104A000085B920684069C04300060BD5002044F8F2
:104A1000300F20216173A073216941F020012161D1
:104A20002073E4E720684069C0430006DBD400201F
:104A300070BD000030B587B01C216846FBF7EAFC6A
:104A40001A481949002401608915816004730475AE
:104A5000012505614FF460214460C161FDF732FF1B
:104A600008B1FCF795FD0420CDE90005C002022540
:104A700006908DF81540049502948DF8144069460F
:104A80000A480394FDF73CFD08B1FCF781FD0520C1
:104A9000CDE9000569460548FDF732FD002801D043
:104AA000FCF776FD07B030BD002401403400002043
:104AB0000D4810B50B490160102141600021816053
:104AC000C16001614161017641768176C1760177ED
:104AD0004177FDF7BBFF002803D0BDE81040FCF78D
:104AE00057BD10BD0064004064000020094808B5AF
:104AF000416941F0010141614069002200F001007B
:104B0000009011460E20FEF779FDBDE808400E200A
:104B1000FEF766BD001002402DE9F04186B000248A
:104B200020480094019402940394816941F020018B
:104B30008161816901F020010491816941F00401E2
:104B40008161816901F004010491816941F00801EA
:104B500081618069144F00F0080004900022082150
:104B60003846FEF7B9FADFF84480002203214046B8
:104B7000FEF7B2FA082001250226CDE90005CDE9AD
:104B8000024669463846FEF7B7F90320CDE900052D
:104B9000CDE9024669464046FEF7AEF906B0BDE8EB
:104BA000F08100000010024000080140000C0140AC
:104BB0000D4810B50B4901600C49416000214FF4CC
:104BC00080428160C0E9031241618161C16101627B
:104BD000FEF78EFA002803D0BDE81040FCF7D8BCE1
:104BE00010BD0000005400408C000020A086010091
:104BF00030B58DB000240794089409940A940B945E
:104C00001C2168460C94FBF705FC2D484FF08041B1
:104C10008025C0E900142021816040F20771856180
:104C2000C0E90314FFF79AF808B1FCF7B1FC4FF4A0
:104C30008050079007A92248FFF70EF908B1FCF74A
:104C4000A7FC1F48FFF79BFA08B1FCF7A1FC7020F6
:104C5000CDE90B050BA91A48FFF74CF808B1FCF792
:104C600097FC6020009040F28330CDE901040022DF
:104C7000694613480494FFF71CFA08B1FCF788FC56
:104C8000042269460E48FFF714FA08B1FCF780FCCD
:104C9000082269460A48FFF70CFA08B1FCF778FCCD
:104CA00040F2027001900C2269460548FFF701FAB4
:104CB00008B1FCF76DFC0248FFF7D6F90DB030BD26
:104CC000E000002030B587B000241748009401941C
:104CD00002940394049413490594C0E900144021FC
:104CE0008160802540F207718561C0E90314FFF7F8
:104CF00035F808B1FCF74CFC4FF480500090694641
:104D00000948FFF7A9F808B1FCF742FC04A90648D6
:104D1000CDE90445FEF7EEFF002801D0FCF738FC92
:104D200007B030BD00040040280100200C4810B539
:104D30000A4901604FF4E1314160002181600C2299
:104D4000C160C0E904128161C161FFF707FC00285E
:104D500003D0BDE81040FCF71BBC10BD003801407B
:104D600070010020FEE7FEE770477047FEF7E0BBEA
:104D700030B593B028216846FBF74CFB14210AA8F4
:104D8000FBF748FB002501200F95109511950104B4
:104D900012958DE8230004904FF4E010CDE908103F
:104DA000022407946846FEF7FFFD08B172B6FEE7DD
:104DB0000AA90F2081E831004FF48060CDE90D058C
:104DC00002210AA8FEF714FD08B172B6FEE74FF4FF
:104DD000004011900F940FA8FEF794FC002801D01A
:104DE00072B6FEE713B030BD704700000148FFF710
:104DF000A2B8000028010020F0B50268194B1A4C37
:104E00001A4D4FF08047984205D0B84203D0A042D7
:104E100001D0A84203D122F070064A68324398427A
:104E200005D0B84203D0A04201D0A84203D122F459
:104E30004074CA6822434C6922F080022243026017
:104E40008A68C2620A688262984201D10969016374
:104E5000012141610169C90703D0016921F0010104
:104E60000161F0BD002C014000040040000800403A
:104E700010B501F01F030121046A99408C430462BC
:104E8000016A9A401143016210BD10B5846842EA7C
:104E9000032224F47F440A432243826010BD8268C7
:104EA00022F070020A4342F007018160704700005F
:104EB00030B5036A026A22F0010202624268846924
:104EC00024F073050C682C4323F002058B682B43F8
:104ED0000A4DA8420BD123F00805CB6822F440729A
:104EE0002B434D6923F0040315438A692A4342602A
:104EF000846149684163036230BD0000002C0140B9
:104F000030B5026A036A23F01003036243688469C0
:104F10000D6824F4E64444EA05248D6822F020025A
:104F200042EA05120B4DA8420ED1CD6822F0800254
:104F300042EA05124D6923F4406343EA85038D6913
:104F400022F0400243EA850343608461496881633B
:104F5000026230BD002C014030B5036A026A22F4BF
:104F6000807202624268C46923F4007324F07305FE
:104F70000C682C438D6843EA05230C4DA8420ED1E2
:104F8000CD6823F4006343EA05234D6922F44052BF
:104F900042EA05128D6923F4806342EA05124260F9
:104FA000C4614968C163036230BD0000002C014048
:104FB00030B5046A026A22F4805202624268C36910
:104FC0000D6823F4E64343EA05238D6824F4005476
:104FD00044EA0534064DA84204D14D6922F48042CA
:104FE00042EA85124260C36149680164046230BDCF
:104FF000002C014010B5036A046A24F00104046225
:10500000846924F0F00444EA021423F00A020A43FB
:105010008461026210BD10B5036A046A24F01004B2
:105020000462846923F0A00324F4704444EA023249
:1050300043EA01118261016210BD10B5406A00218E
:10504000C185C184FFF753F910BD70B5446A20686B
:10505000406994F84110C0F3C0100025212904D103
:1050600018B1E584204600F062F82068406994F8A1
:105070004210C0F38010222904D118B1E5852046E2
:1050800000F02EF8606C40F0100060642046FFF7DE
:105090002EF970BD10B50146406A09680968890695
:1050A00016D40021C1840168143151E8002F22F088
:1050B000800241E80023002BF5D101680C3151E852
:1050C000002F42F0400241E80023002BF5D110BD33
:1050D000FFF70CFB10BD10B5406AFFF709FB10BDD0
:1050E00001680C3151E8002F22F4907241E800234E
:1050F000002BF5D10168143151E8002F22F0010294
:1051000041E80023002BF5D1016B012909D1016889
:105110000C3151E8002F22F0100241E80023002B4F
:10512000F5D1202180F84210002101637047016809
:105130000C3151E8002F22F0C00241E80023002B7F
:10514000F5D1202180F84110704708B590F8421041
:10515000222901D0022008BD82684FF480539A4270
:1051600001D1016921B1816A9A421BD04AB10AE09A
:105170000268816A5268C2F308020A80816A891C47
:1051800008E0026972B10268526802F07F020A7098
:10519000816A491C8162C18D491E0904090CC185BF
:1051A00003D01BE002685268F1E70168CA6822F088
:1051B0002002CA600168CA6822F48072CA6001686D
:1051C0004A6922F001024A61202180F84210002140
:1051D0004163026B012A03D0FFF74AFA002008BDA1
:1051E000016301680C3151E8002F22F0100241E800
:1051F0000023002BF5D101680A68D20602D50A689F
:1052000049680091818DFFF771F8E7E770B50446B2
:1052100000680169E26821F440511143016121698C
:10522000A0680843616908432168CA6841F20C63B9
:105230009A430243CA6020684169A26921F440711F
:10524000114341611E492068884202D1FEF776FB76
:1052500001E0FEF763FB00EBC00101EB00126068A8
:1052600064218000B2FBF0F3B3FBF1F36FF018069A
:105270007343B2FBF0F5B2FBF0F605EB8305322386
:1052800003EB0515B5FBF1F5B6FBF1F605F0F005FE
:1052900005EB0615B2FBF0F6B2FBF0F0B0FBF1F057
:1052A0006FF01802504306EB800003EB0010B0FBD8
:1052B000F1F0216800F00F002844886070BD000004
:1052C000003801400148FFF713B8000070010020CA
:1052D000FEE7490050EAC12018BF04204A0D18BF5C
:1052E00040F0010040F2FF72B2EB515F08BF40F0A6
:1052F0000200012808BF052070470907090E002891
:1053000004DB00F1E02080F80014704700F00F008B
:1053100000F1E02080F8141D704730380A2801D2CF
:10532000012070470020704770B5124C88B020787B
:1053300000281DD000F028F9002819D06946012066
:1053400000F0C2F872B6DDE90056049800F09CFC4B
:105350000021217062B602463146284600F016F957
:10536000002805D072B6207808B90120207062B6F6
:1053700008B070BD100000202DE9FE43FCF7D5F801
:105380004A4D0446A8686C61211AB1F57A7F46D36C
:10539000084600F079FC464900F0BEFC8146012039
:1053A000AC60FCF7EDFC044690F8FC01002836D018
:1053B0006846FCF768F8002708B172B62CE0BDF823
:1053C0000000FCF735F806469DF80800C8B1032830
:1053D00017D072B69DF8071069709DF80610A97075
:1053E000BDF80410A9802870EE60E06C10F0FF4F4B
:1053F00043D03046616C00F097FDDFF8B8802E4F47
:1054000012E072B69DF8071069709DF80610A97039
:10541000BDF80410A9802870A764E76462B6BDE8EF
:10542000FE83414600F080FDB842FADC234FB842CB
:1054300003D9414600F06AFAF9E70746494600F009
:10544000D9FA1F4900F068FC414600F0D3FAD4F8BD
:10545000488080F00040414600F066FD194900F0A8
:105460005BFC414600F052FA28613946D4F8C80185
:1054700000F04CFAC4F8C80100E02F6166642869A6
:10548000A064D4F8D011D4F8C80100F04DFDC4F8E0
:10549000CC01A06D401CA0654FF07E50E06462B668
:1054A00049460120FCF740FFB9E700001400002046
:1054B000BD378635DB0FC940DB0F4940DB0F49C0E4
:1054C00000007042CDCC4C3D10B50C46FCF758FCAA
:1054D000002C15D072B6D0F8C0112160816C6160CB
:1054E0000849CA68A260C06CE060486920614878D9
:1054F0002075887860758888E0820878207662B6A2
:1055000010BD0000140000203EB54FF47A748DE801
:105510001C0040000A46014601230248FDF7ACFE8C
:105520003EBD00008C00002010B521B1094C22784E
:105530001AB1022010BD002010BD012222700A46BF
:1055400001460548FFF796F80028F5D000212170A4
:1055500010BD00002D00002070010020034988428A
:1055600002D103490020087070470000700100203C
:105570002D0000200348007808B10020704701206A
:10558000704700002D000020FFF7F4BF2DE9F04721
:10559000DFF868800C468246174998F8000086B00C
:1055A00001EB8019104600F085F906460F462046AB
:1055B00000F080F904460D46504600F07BF98DE876
:1055C000F3000FA240214846FAF70AFE002801DD49
:1055D000402803DB012006B0BDE8F08781B24846D1
:1055E000FFF7A2FF0028F6D198F8002082F0010210
:1055F00088F80020EFE70000FC0100202C000020CC
:10560000252E33662C252E33662C252E33660A0074
:1056100070B51D46144BC0EBC00003EB4004049E64
:10562000207B04EB400324F81010DA80637B032B0B
:1056300001D25B1C6373401CC0B2032800D300205E
:105640002073607B032802D22980328070BDA2883B
:105650006188208800F05EF8288062892189E088CE
:1056600000F058F8308070BD7C08002038B5144632
:105670000D4601280BD106490968CA6B096C92B224
:10568000009389B22B46FFF7C3FF0020208038BD6E
:1056900034000020012804D1002208210148FDF730
:1056A0001BBD704700080140012804D101220821D8
:1056B0000148FDF711BD7047000801401FB50128E2
:1056C0001ED1002000900190029003900E220D49FF
:1056D0006846FAF728FE0E2269460B48FAF723FEC1
:1056E0000A48FCF7A1FE0948FDF722F808B1FBF7CC
:1056F0004FFF0748FEF788FB002801D0FBF748FF63
:105700001FBD0000C86300088A0800203400002084
:10571000E0000020884202D903460846194691421B
:1057200000D91146884200D901460846704700005A
:1057300010B501280DD100210648FEF79DFD04217A
:105740000448FEF799FDBDE8104008210148FEF726
:1057500093BD10BDE000002010B5012806D104481B
:105760000468616301688A630068C36310BD000058
:10577000E000002010B5012815D100210A48FEF7ED
:105780002DFD04210848FEF729FD08210648FEF7F3
:1057900025FD0C210448FEF721FD03480068C16A7D
:1057A000A1F59071016410BDE000002070B50446C1
:1057B000A0F8CA10A0F8CC2015460846B034FCF773
:1057C00035F820602846FCF731F8606070BD70B590
:1057D00005460C46B1F90800FCF728F8A860B4F9B2
:1057E0000A00FCF723F8E860B4F90C00FCF71EF897
:1057F00028612069FBF7F6FFFCF718F86861B4F937
:105800000E00FCF713F8A86170BD0000054988423E
:1058100001DB00F089BB10F1FF4F01D300F076B837
:1058200070470000DB0FC940FDF78AFEFFF7A0FAC2
:10583000FFF772F9FFF75AF9FFF7BAF9FFF776FAAF
:10584000FFF7F8F8FFF734F9FFF7D2F9FFF73AFA64
:1058500008490120FCF79AFA3220FDF73BFB064984
:105860000120FCF739FD00BFFFF786FDFFF75CFD67
:10587000FAE70000AC6300080000964310B5002969
:105880000AD00878002807D005487844FBF750F97B
:10589000002801D0002010BD0248784410BD00004F
:1058A000020C0000FA0B00000808A0F500114FEAF6
:1058B0003101704743004FEAD30C4FEA3C0C4340A0
:1058C0001FBF40070CF1605113F0FE4F70471CF0F2
:1058D000006F03D100200CF0004170470CF0004332
:1058E00043EA507010B540EACC0000F096FA00BFD1
:1058F000000000924FEA0001FFF7D6BF4FF00041D1
:105900004FF00000A1F500217047000090EA010F60
:1059100048BF81F0004100F10E83421A3CBF801A5B
:1059200089184FEAD0524FF07F4C1CEA410FA2EB8E
:10593000D15318BF9CEA026F00F03B804FF0004C3F
:105940004CEA00204CEA012121FA03FC10EB0C0C7C
:105950001ED202F1FF325FEA1C2040EBC25038BF7A
:1059600070471CF07F0F4FEA400C18BFBCF17F4F0F
:1059700038BF7047C3F12003994008BF20F00100F1
:10598000BCF17F4F38BF7047A0F1C04000F08BBA28
:105990004FEA3C00000A40EBC25028BF1CF0FF0F4A
:1059A0004FEA400CE6D018BFBCF17F4F38BF7047BC
:1059B000EAE79CEA026F05D010EA5C0F08BF00F02E
:1059C0000040704710B500F028FA00BF64FBBE3EEF
:1059D000014800F020BB00BF0000C07F401058BF4E
:1059E000C0F14040491058BFC1F140418142EFF33E
:1059F000008070474FF47F0C1CEAD0121EBF1CEAD7
:105A0000D11392EA0C0F93EA0C0F00F0858090EA14
:105A1000010F48BF42F4807240F4000C41F40000D2
:105A20002CF07F4120F07F4000B58142A2EB0302C1
:105A30000FF2081CACEB504EC0F100009EF800E0E5
:105A40004FEA4E0E00FB0EFC38BF49004FEA2C1CFB
:105A500002F5FA020CFB0EF34FEACE1E4FEA112CB0
:105A60004FEAC1210EEB635E42EB22420EFB0CFCBF
:105A70004FEA1C5300FB03114FEA112C4FEA01318E
:105A80000EFB0CFC4FEADC4C00FB0C11C14228BFA2
:105A900009184CEB03335DF804EB10EB410143EBC9
:105AA000C250B2F57C0F38BF704729D512F0F00F05
:105AB0001CBF00F1C04000F00040704700818283AD
:105AC0008485868788898B8C8D8E8F91929395960D
:105AD00097999A9C9D9FA0A2A3A5A7A8AAACAEB097
